:0A0000000C945B000C9400000C94BB
:10000A0000000C9400000C9400000C9400000C9466
:10001A0000000C9400000C9400000C9400000C9456
:10002A0000000C9400000C9400000C9400000C9446
:10003A0000000C9400000C9400000C9400000C9436
:10004A0001070C9400000C9400000C9400000C941E
:10005A0000000C9400000C9400000C9400000C9416
:10006A0000000C9400000C9400000C9400000C9406
:10007A0042050C9400000C947C050C9400000C942E
:10008A0000001027E80364000A00010000100001C4
:10009A0010000100000001002D4E414E0000020038
:1000AA0004009E0001006706A0000000F894EE27F5
:1000BA00ECBBF1E0F5BFE5BFE0936C00F8E1F1BD00
:1000CA00E1BD8DE0A2E0BB27ED938A95E9F780E0D8
:1000DA0090E1A0E0B1E0ED930197E9F7E8EAF0E0FA
:1000EA0085919591009761F0A591B591059015902C
:1000FA00BF01F00105900D920197E1F7FB01F0CFE6
:10010A00EFEFEDBFE0E1EEBFC0E0D5E00C94780779
:10011A00A981BA811C9718F0EFEFFFEF2EC00E9459
:10012A00BD0829C0A981BA811C9718F0EFEFFFEF2B
:10013A0024C00E94BD08A981BA81A034E0E0BE07AC
:10014A0050F4E981FA810E94C408AE0FBF1F0E94D1
:10015A00A50A309709F40FC00E94C908E981FA81FB
:10016A000E94CF0819F4E0E0E0931C05E0911B051A
:10017A00EF5FE0931B05E1E0F0E0239608951A9300
:10018A000A93EC81FD810E94D7081D9720F4AC8167
:10019A00BD81109719F4EFEFFFEF94C1EA81FB815B
:1001AA00309719F4EEEFFFEF8DC100E010E00E94E6
:1001BA00DC080E171F0750F4F801AA81BB81AE0FA5
:1001CA00BF1FE0E0EC930F5F1F4FF1CF00E010E09C
:1001DA00EC81FD810E171F0728F5F801AE81BF815A
:1001EA00EA0FFB1FEF5FFA4FE081E03059F00E94FF
:1001FA00E408FF93EF930E94EC08E62BF72BAF91EC
:10020A00BF910CC00E94E408FF93EF930E94EC0890
:10021A00E095F095E623F723AF91BF91EC930F5F3A
:10022A001F4FD6CF0E94DC084DC10E94F80840F447
:10023A00EA81FB810E94C4080E94FE080C94CB0547
:10024A00E0E0F0E00C94CB05AA81BB81149720F082
:10025A00EFEFFFEF0C94CB050E9407090E94FE08FE
:10026A000C94CB05AA81BB81149720F0EFEFFFEF26
:10027A000C94CB050E940709EA0FFB1FA881B981DC
:10028A00A083B1830E94F80830F40E940E090E94EC
:10029A001509309709F410C00E94C908EA81FB8148
:1002AA00E0640E94CF0819F4E0E0E0931C05E091B5
:1002BA001B05EF5FE0931B05E1E0F0E00C94CB0532
:1002CA00AA81BB81149720F0EFEFFFEF0C94CB05C6
:1002DA000E9407090E941509A881B981ED93FC9330
:1002EA00E1E0F0E00C94CB050E948B0B2C813D8160
:1002FA00EE81FF81A885B985AE0FBF1F159720F043
:10030A00AE81BF81109709F003C0EFEFFFEF1DC068
:10031A0000E010E0EE81FF810E171F07A8F4F80134
:10032A00EE0FFF1F0E941A090E947A0AD001EC936D
:10033A00F801EE0FFF1F31960E941A09F070D001E2
:10034A00EC930F5F1F4FE6CFF8010E94900B2A969D
:10035A0008950E94F80830F40E940E090E94FE08CF
:10036A000C94CB05E0E0F0E00C94CB050E948B0BDB
:10037A0020E030E000E010E0EC81FD810E171F075D
:10038A0050F4F8010E94D7080E9427092E0F3F1F38
:10039A000F5F1F4FF1CFF9010E94900B95C0AA8100
:1003AA00BB81109721F0A881B981109719F4EFEF5A
:1003BA00FFEFD2C0EC81F0E00E946A0AF096AA81AF
:1003CA00BB81EC93EC81F0E0EF70F070F096A881BD
:1003DA00B981EC93AA81BB81AC91AA3330F0AA818E
:1003EA00BB810E9427093796EC93A881B981AC9109
:1003FA00AA3330F0A881B9810E9427093796EC9375
:10040A00E1E0F0E0A9C0EA81FB81309721F4EFEF47
:10041A00FFEF0C94CB05A981AA3320F00E942A0988
:10042A003797E983A881AA3320F00E942D093797CC
:10043A00E8830E942A09F097E9830E942D09F09720
:10044A00E8830E942A090E94610ADF010E942D099D
:10045A00EA2BFB2BF0E0AA81BB81EC93E1E0F0E010
:10046A000C94CB051A930A93AE81BF81109721F0A1
:10047A00AC81BD81109719F4EFEFFFEF23C000E0C4
:10048A0010E0EA81FB810E171F07C4F4F8010E94ED
:10049A00D708EC91EA93F801EE0FFF1FAD81BE81F8
:1004AA000E943009F801EE0FFF1F3196AF81B8851F
:1004BA000E94300974DF0F5F1F4FE3CFEA81FB818F
:1004CA00EE0FFF1F19810881289608951A930A933F
:1004DA0000E010E00630E0E01E074CF4A5E1B5E0CC
:1004EA00A00FB11FE0E0EC930F5F1F4FF3CFE0E0E6
:1004FA00E0931B05E0931C05E0931D0500E010E066
:10050A000C30E0E01E0744F4F8010E94C4080E947F
:10051A0035090F5F1F4FF4CF00E010E00430E0E030
:10052A001E0754F4F801A6E3B5E0EE0FFF1F0E9480
:10053A0035090F5F1F4FF2CFEC81E0930005CC2401
:10054A00DD24EA81FB81FA93EA93E3EBF2E0FA9382
:10055A00EA9301D319810881259608951A930A937B
:10056A00EDB7FEB7FA93EA931F9312D31F91309710
:10057A0011F40C94EE04F201309729F41A3311F4B1
:10058A000E943C0925C2E130A0E0FA0709F50E9461
:10059A00450919F40E943C091AC0E2E0F0E0E615A8
:1005AA00F705A9F40E944E09A0910005EA1719F46B
:1005BA000E945D090CC0E0919305E03031F40E947D
:1005CA005D09E1E0F0E06F0102C04424552400C255
:1005DA00E230A0E0FA0709F50E94450919F40E94E1
:1005EA003C091AC0E2E0F0E0E615F705A9F40E941A
:1005FA004E09E0934205E3E0F0E02F01A091BB052C
:10060A00BB270E946C09EA0FE093BB056624772496
:10061A00AA24BB2488249924DBC1E330A0E0FA078A
:10062A0011F00C94EB041D3021F4E1E0F0E05F01DD
:10063A004DC01A3029F4E1E0F0E0EA15FB0509F0B3
:10064A0023C0AA24BB24F3013197ED56FA4F008147
:10065A000E947009FF93EF930E947409F301319786
:10066A00FA93EA9383DEF0E0F0E0AF91BF91EA0FEC
:10067A00E093BB050E9470090E947909A091BB050D
:10068A000A1709F0A3C123C01A3319F40E943C09BE
:10069A001DC0F401ED5BFA4F1083F40131964F014E
:1006AA00E2E0F0E0E815F90589F4F301ED56FA4FB6
:1006BA00FA93EA93E0914305EA93E0914405EA93B9
:1006CA00A2DEF30131963F018824992481C1E09189
:1006DA004205F0E0E130A0E0FA0701F50E94810945
:1006EA000E94890934F40E949709AE0FBF1F109720
:1006FA0009F4F7C00E9481090E9430090E949709F3
:10070A000E943009E4E9F5E0FA93EA9338DDE093D0
:10071A0093050E946C0931963F01E5C0E530A0E0DF
:10072A00FA0771F5E0919505EF3F21F4E0919605FE
:10073A00E03009F00BC00E9481090E943009E1E013
:10074A000E949F0911F44424552416C0E09195058E
:10075A00E03021F4E0919605E03009F00BC00E94E8
:10076A0081090E943009E0E00E949F0911F44424A3
:10077A00552402C044245524E4E0F0E03F01B3C00C
:10078A00EF30A0E0FA07C9F50E9481090E948909A1
:10079A0034F40E949709AE0FBF1F109709F4A1C045
:1007AA00882499240E949709EA0FFB1F8E169F0638
:1007BA0004F50E9481090E94A6090E946C0AE85663
:1007CA00FA4F60817727D401E8E0F0E00E94970AA7
:1007DA00A1E0B0E00E944F0AE623F723309711F018
:1007EA00E1E001C0E0E0EA939DDCF40131964F01BB
:1007FA00D9CFE4E0F0E03F0176C0E330A0E0FA07A9
:10080A0011F50E9481090E94AE0934F40E949709E9
:10081A00AE0FBF1F109709F464C00E9481090E949D
:10082A0030090E9497090E943009E4E9F5E0FA9339
:10083A00EA935ADDEE0FFF1FE09393050E946C09BD
:10084A0031963F0150C0E630A0E0FA0799F40E94C1
:10085A0081090E9430090E9497090E94300902DD2D
:10086A00EF3FAFEFFA0711F444245524E4E0F0E037
:10087A003F0139C0E031A0E0FA0799F50E948109E9
:10088A000E94AE0934F40E949709AE0FBF1F109759
:10089A0009F427C0882499240E949709EA0FFB1FAC
:1008AA008E169F06D4F40E9481090E94A609EE0FB3
:1008BA00FF1FE856FA4FE081FE2FE0E0DF01F40166
:1008CA00EE0FFF1FE756FA4FE081F0E00E94300971
:1008DA00C9DCF40131964F01DFCFE4E0F0E03F01DB
:1008EA0002C044245524E3E0F0E0E415F50519F4C8
:1008FA000C2C0D2809F067C0EAE3E0934305E09168
:10090A000005EA93E4E4F5E0FA93EA93E5E4F5E016
:10091A000E94BC09E0914205EA93E6E4F5E0FA9305
:10092A00EA93E7E4F5E00E94BC090E947409E8E44E
:10093A00F5E0FA93EA937A926A9294DD0E94740936
:10094A007A926A9213DDE093BB05A091BB05BB279F
:10095A00E09100050E94C009A091BB05BB27E09168
:10096A0042050E94C0090E9470090E947909E0911B
:10097A00BB05EA93F301EE0FFF1FE85BFA4FFA9308
:10098A00EA93F301EE0FFF1FE75BFA4F0E94BC09DF
:10099A00F301EE0FFF1FE65BFA4FADE0A083F30110
:1009AA00EE0FFF1FE55BFA4FAAE0A083E3E4F5E050
:1009BA00FA93EA93F301EE0FFF1F3996FA93EA933B
:1009CA0044D144245524CC24DD2402C04424552493
:1009DA00C7CD0991199108951A93E0911B05E0304A
:1009EA0011F40C944005E0911D05F0E0EB5EFA4F1E
:1009FA001081E0911B05E150E0931B05A0911D05B4
:100A0A00AF5FA0931D05A63019F4E0E0E0931D0541
:100A1A000E94C509E6E00E94580A309799F40E949C
:100A2A00C509EFE3F0E0EA23FB230F010E94C408A3
:100A3A000E941509FF93EF931A920A92EF91FF9180
:100A4A00099518C0E130A0E0FA07A1F40E94C5098F
:100A5A00EFE3F0E0EA23FB230F01A6E3B5E0EE0F94
:100A6A00FF1F0E941509FF93EF931A920A92EF91C2
:100A7A00FF910995B2CF0C9453070E94C8091A93A3
:100A8A000A9310919B0000919C000E94C509ECE119
:100A9A00F0E0EA23FB23309739F5E0910006F0E015
:100AAA00E054FA4F0083A0910006AF5FA0930006BE
:100ABA00A03419F4E0E0E0930006A0910206AF5FCB
:100ACA00A0930206A03429F4E0E0E09302066894B9
:100ADA0020F8E091BE05F091BF05309729F0E0912A
:100AEA00BE05F091BF0509950991199126C00E948A
:100AFA00C809E0914506E030B1F0E150E0934506BF
:100B0A00E0914406F0E0ED5FF94FE081E0939C004C
:100B1A00A0914406AF5FA0934406A03419F4E0E024
:100B2A00E09344060AC0E091BC05F091BD053097F8
:100B3A0021F0E0E0F0E00E94D609E991EFBFF991D7
:100B4A00E991B991A9919991899179916991F990CC
:100B5A00199009901895EA81FB81E093BC05F093FE
:100B6A00BD05E881F981E093BE05F093BF05E0E099
:100B7A00E0939B00E8EDE0939A00E6E8E0939D009D
:100B8A00E0E0E0939800E5E0E09399002496089568
:100B9A00E0910206E030E1F0E0910106F0E0E05475
:100BAA00FA4FE081A881B981EC93A0910106AF5F69
:100BBA00A0930106A03419F4E0E0E0930106E09165
:100BCA000206E150E0930206E1E0F0E00C947607B9
:100BDA00E0E0F0E00C947607A0914506A03489F194
:100BEA00E0914506E03029F4E0919B00F0E0E072E4
:100BFA00B9F4E0914306F0E0ED5FF94FA881A083D4
:100C0A00A0914306AF5FA0934306A03419F4E0E035
:100C1A00E0934306E0914506EF5FE09345060DC079
:100C2A00E091BC05F091BD05309721F0E1E0F0E0DC
:100C3A000E94D609E881E0939C00E1E0F0E00C9480
:100C4A00BB08E0E0F0E00C94BB081A930A9300E0BA
:100C5A0010E0EA81FB810E171F0768F4F801AC81E6
:100C6A00BD81AE0FBF1FEC91EA93B6DF309719F042
:100C7A000F5F1F4FEECFF8011981088183C00E94D0
:100C8A00DE09E093510608950E94DE09E0935206B8
:100C9A00E9D0E09353060895EBB1F0E0E074E1F394
:100CAA0053985E9A0895539A0895549A08955498B9
:100CBA0008950E948B0B0E94F409EDB7FEB7319795
:100CCA00FA93EA931F930F930E9465010F911F9164
:100CDA00F8010E947A0AE0934806F801E09349066F
:100CEA000E94F909EDB7FEB73197FA93EA933F9359
:100CFA002F930E9465012F913F91F9010E947A0A70
:100D0A00E0934606F901E0934706E0914606F0E0D3
:100D1A00B996DF01E0914706F0E0AE0FBF1FE09100
:100D2A004806F0E0AE0FBF1FE0914906F0E0EA0F77
:100D3A000E94FE09E1E0EA930E94B708E7E0EA931D
:100D4A000E94B708E3E0EA930E94B708EEE1EA934B
:100D5A000E94B708E0914906EA930E94B708E09119
:100D6A004806EA930E94B708E0914706EA930E9470
:100D7A00B708E09146060E94100A81DF94DF959A2F
:100D8A000E94900B26960895E881F981F5960E94B3
:100D9A00FE09E881EA930E94B708E4E0EA930E9418
:100DAA00B708E2E0EA930E94B708EEE2EA930E94EB
:100DBA00B708E1E00E94100A67DF75DF959A0C9484
:100DCA0076070E94F409E0DFA0915206A13029F4C7
:100DDA00A0E021FCA1E0A03009F004C00E941D0A95
:100DEA00689407C0E0915206E03021F40E941D0A7F
:100DFA00E89421F80C947607AA93BA93EA93FA93A3
:100E0A00EFB7EA931A930A931BB10CB10E94C50972
:100E1A00ECE1F0E0EA23FB233097D9F4E091640691
:100E2A00EF5FE09364060E94260A0083A09164069D
:100E3A00A03119F4E0E0E0936406A0916606AF5F82
:100E4A00A0936606A03129F4E0E0E0936606689470
:100E5A0022F809911991E991EFBFF991E991B991B4
:100E6A00A99118951A93E0916606E030E1F3E091B2
:100E7A006506EF5FE09365060E94260A1081A0913D
:100E8A006506A03119F4E0E0E0936506F894E09174
:100E9A006606E150E09366067894E12F1991089569
:100EAA000E942D09E7B985E28A95F1F70E942B0A7B
:100EBA00E064E6B90E942B0AE071E1F30E942B0A72
:100ECA00E061E6B9E4B1F5B10C94BB08A881B98137
:100EDA00119711F4949A05C0E881F981309709F4C1
:100EEA00949822960895E0E1EBBBEABBE0E0E8BB08
:100EFA00E7BBE5BBE4BBE2BBE0E3E1BBE0E0E3B9AF
:100F0A00E0E8E2B9E0E0E0936200E0936100E09398
:100F1A006500E0936400E0BFE3BFE2BFE1BFEFBD5D
:100F2A00E9E00E942E0AEBE2EBBDE3E30E94350AF8
:100F3A00EFBDE0E00E942E0AE0E0EBBD0E94350A18
:100F4A00E5BDE0E0E4BDE3BDE0938B00E0938A00F9
:100F5A00E0938900E0938800E0938100E0938000A9
:100F6A00E0938700E0938600E0938500E093840095
:100F7A00E0938300E0938200E0936A00EABFE9BF4E
:100F8A00E7BFE0937D00EBB9E8E9EAB9E6E0E09370
:100F9A009500E0E0E0939000EBE0E9B9E0E0E7B922
:100FAA00E4E8E6B9E0E8E8B9E0E0E0BD7894E1E039
:100FBA00EA93EBE6F7E0FA93EA930E946B02E9E020
:100FCA00F0E0FA93EA93E6EEF6E0FA93EA930E94E7
:100FDA001A010E94F409EEE5F6E0FA93EA930E94F8
:100FEA00AE010E94F104E4E0EA935ADF8F01F801AE
:100FFA000E947F0A0E940F0BACE8BAE48AE69CE3DF
:10100A000E943D0BA0E0B0E080E291E40E943D0B1B
:10101A000E94D80A8F010E943E0A1A930A930E94DC
:10102A002901A0E0C899A1E0A13021F40E94F409A5
:10103A00E1E003C00E94F409E0E0EA930E948D0017
:10104A00A0E0C999A1E0A13021F40E94F909E1E0E8
:10105A0003C00E94F909E0E0EA930E948D00A0E033
:10106A00CA99A1E0A13021F40E943E0AE1E003C03E
:10107A000E943E0AE0E0EA930E948D00A0E00699F1
:10108A00A1E0A13031F4E4E0F0E0FA93EA93E1E080
:10109A0005C0E4E0F0E0FA93EA93E0E0EA930E9404
:1010AA008D00A0E00599A1E0A13031F4E5E0F0E07F
:1010BA00FA93EA93E1E005C0E5E0F0E0FA93EA93F7
:1010CA00E0E0EA930E948D00A0E00099A1E0A1303F
:1010DA0031F4E6E0F0E0FA93EA93E1E005C0E6E0F5
:1010EA00F0E0FA93EA93E0E0EA930E948D00A0E030
:1010FA009B99A1E0A13031F4E7E0F0E0FA93EA939A
:10110A00E1E005C0E7E0F0E0FA93EA93E0E0EA9371
:10111A000E948D00A0E09C99A1E0A13031F4E8E0A2
:10112A00F0E0FA93EA93E1E005C0E8E0F0E0FA9330
:10113A00EA93E0E0EA930E948D00A0E00799A1E01B
:10114A00A13031F4EBE0F0E0FA93EA93E1E005C074
:10115A00EBE0F0E0FA93EA93E0E0EA930E948D0074
:10116A0040CFFFCF5D9BFECFE881ECB92196089571
:10117A00E981FA81EF5FFA4FA881A0830895AEE171
:10118A00B5E0EE0FFF1F0895A0911C05B0E0AB5E1D
:10119A00BA4F0895EC93A0911C05AF5FA0931C056C
:1011AA00A6300895AE81BF81AE0FBF1F0895AC81EE
:1011BA00BD811197FD010E94730A31960895F801C5
:1011CA000E946C0AAA81BB81EA0FFB1F0895608105
:1011DA007727D801E8E0F0E00E94970AA1E0B0E0A2
:1011EA000E944F0A0895AA81BB81A034E0E0BE079D
:1011FA000895EA0FFB1FA881B981A083B183E1E0BA
:10120A00F0E00895EA81FB81ADE0B5E0EE0FFF1F43
:10121A000895EA81FB81A6E3B5E0EE0FFF1F08956A
:10122A00AE0FBF1F0E94A50A0895E20FF31F0F0118
:10123A00F801A885B985EA0FFB1FADE0B5E0EE0F0E
:10124A00FF1FEECFEC91F0E00895E981F0E00895F8
:10125A00E881F0E00895EA0FFB1FFA93EA930895F4
:10126A00AE0FBF1FE0E0F0E0ED93FC930895E1E0DC
:10127A00F0E02F0166247724E0E0E093BB050895AF
:10128A00F30131963F013197E25CFA4F10831A332A
:10129A000895E3E9F5E0FA93EA93E0913E05EA93CB
:1012AA00E0913F05EA930E940802E09193050895B0
:1012BA00E2E0F0E02F01A091BB05BB27E091930586
:1012CA00F0E0EA0FE093BB05662477240895E091E5
:1012DA009305F0E00895E091BB05F0E00895E3E995
:1012EA00F5E0FA93EA930895AFEFB0E0EA27FB2717
:1012FA003196E093BB050895F0919305E0E0DF0194
:10130A00E0919405F0E00895AE0FBF1FF0919505A6
:10131A00E0E0AE0FBF1FE0919605F0E0AE0FBF1FF1
:10132A001D970895F0919505E0E0DF01E09196059B
:10133A00F0E00895EA930E949700EF3FAFEFFA07B3
:10134A000895EA0FFB1FE80DF91DFA93EA93F401D9
:10135A000895AE0FBF1FF0919505E0E0AE0FBF1FD5
:10136A00E0919605F0E0AE0FBF1F15970895FA9326
:10137A00EA930C94D401F0E0EA0FE093BB050895D8
:10138A00A12FB0E008950A921A92FA926A937A9378
:10139A008A939A93AA93BA93EA93FA93EFB7EA9342
:1013AA000895FA93EA93E091BC05F091BD05099579
:1013BA0008950E943707E0934E060E943707E0938C
:1013CA004F060E943707E0934D060E943707E093C5
:1013DA0050060E943707E0934C060C943707E1E069
:1013EA00F0E0FA93EA930895E2E0F0E0FA93EA93E0
:1013FA000895E0934A06E095E0934B060E945C0646
:10140A00959A0E945806EFEFEA930E94B708EFEF09
:10141A00EA930C94B708EA930E94B708E0914B0646
:10142A00EA930E94B7080E94510695980C945A06AE
:10143A00EAE0F0E0FA93EA93E0915206EA930C9418
:10144A008D00E150F0E0EC5AF94F0895E6B1F0E072
:10145A000895EEBDE0E0EDBDECBDE7BDE6BD089543
:10146A00EABDE0E0E9BDE8BDE0937900E0937800E9
:10147A000895E3E0F0E0FA93EA930895F195E1958F
:10148A00F0400895F09560957095E195FF4F6F4F84
:10149A007F4F0895EE230E2EFD0121F0EE0FFF1F60
:1014AA000A94E1F70895EE230E2EFD0121F0F59539
:1014BA00E7950A94E1F70895EE0FFF1FEE0FFF1F5D
:1014CA00EE0FFF1FEE0FFF1F0895F595E795F595AF
:1014DA00E795F595E795F595E7950895F695E795D6
:1014EA00F695E795F695E7950895EF2FFF27E7FD1F
:1014FA00FFEF08956F2F660F660B762F089500246D
:10150A00112490E1AA0FBB1F001C111C0E1A1F0AFE
:10151A0018F40E0E1F1E01C0A1609A9599F7FD01DD
:10152A00D0010895E894B7FF04C0A095B09511962C
:10153A006894F7FDA3DFE3DFFD010EF49FDF089552
:10154A00ED91FC9111970895552342F4503811F406
:10155A00E0FF04C03196691F791F6BF050E85727E6
:10156A0011F45F9373C05F3F31F0660F000C57951B
:10157A006795752F08955F9300200AF073C06CC0B9
:10158A0050E8192E1522880F991F9527550F879510
:10159A0050E8072E0522660F771F7527550F6795A6
:1015AA000895689401C0E8945F93F2DF703818F0E8
:1015BA007F3F08F44BC056E1571BAAF451955830A7
:1015CA000EF4593030F0EFEFFFEF6FEF7FE777F966
:1015DA001AC077275523B9F0EE0FFF1F661F771F32
:1015EA005A95D1F710C07727583028F0EF2FF62FE9
:1015FA00672F5850F9CF552331F076956795F795AF
:10160A00E7955A95D1F700200AF43CDF5F910895D7
:10161A00689401C0E894309760407040B1F00024AB
:10162A0026F0772312F400942DDF172E7EE1112085
:10163A0032F07A95EE0FFF1F661F111CF9CFEF2FBC
:10164A00F62F612D5F938ADF5F910895EE27FF27BA
:10165A00662777275F910895EFEFFFEF6FE77FEF38
:10166A005F910895EFEFFFEF6FE77FE75F910895CE
:10167A005F9386DF703851F3903841F30124089460
:10168A00791F23F41CF300203AF3ECCF0F921F9337
:10169A002F933F934F93112722279927689FA001E1
:1016AA008F9F302D410D591F6B9F300D411D591FC2
:1016BA008E9F27D0BF9F25D06A9F23D0BE9F1DD063
:1016CA00AF9F1BD0AE9F110D291F391F491F591FEC
:1016DA00E32FF42F652F522F4F913F912F911F9196
:1016EA000F9066232AF0550FEE1FFF1F661F02C0D8
:1016FA0073954BF229DF5F910895100D211D391F53
:10170A0002C0200D311D491F591F08953A932A938B
:10171A001A930A9308953B812A81198108810895B1
:00000001FF
